{
  "contractName": "Election",
  "abi": [
    {
      "inputs": [],
      "payable": false,
      "stateMutability": "nonpayable",
      "type": "constructor"
    },
    {
      "constant": true,
      "inputs": [
        {
          "internalType": "uint256",
          "name": "",
          "type": "uint256"
        }
      ],
      "name": "candidates",
      "outputs": [
        {
          "internalType": "uint256",
          "name": "id",
          "type": "uint256"
        },
        {
          "internalType": "string",
          "name": "name",
          "type": "string"
        },
        {
          "internalType": "uint256",
          "name": "voteCount",
          "type": "uint256"
        }
      ],
      "payable": false,
      "stateMutability": "view",
      "type": "function"
    },
    {
      "constant": true,
      "inputs": [],
      "name": "candidatesCount",
      "outputs": [
        {
          "internalType": "uint256",
          "name": "",
          "type": "uint256"
        }
      ],
      "payable": false,
      "stateMutability": "view",
      "type": "function"
    }
  ],
  "bytecode": "0x608060405234801561001057600080fd5b506100556040518060400160405280600a81526020017f43616e646964617465310000000000000000000000000000000000000000000081525061009e60201b60201c565b6100996040518060400160405280600a81526020017f43616e646964617465320000000000000000000000000000000000000000000081525061009e60201b60201c565b6101be565b6001600081548092919060010191905055506040518060600160405280600154815260200182815260200160008152506000806001548152602001908152602001600020600082015181600001556020820151816001019080519060200190610108929190610119565b506040820151816002015590505050565b828054600181600116156101000203166002900490600052602060002090601f016020900481019282601f1061015a57805160ff1916838001178555610188565b82800160010185558215610188579182015b8281111561018757825182559160200191906001019061016c565b5b5090506101959190610199565b5090565b6101bb91905b808211156101b757600081600090555060010161019f565b5090565b90565b61020b806101cd6000396000f3fe608060405234801561001057600080fd5b50600436106100365760003560e01c80632d35a8a21461003b5780633477ee2e14610059575b600080fd5b61004361010e565b6040518082815260200191505060405180910390f35b6100856004803603602081101561006f57600080fd5b8101908080359060200190929190505050610114565b6040518084815260200180602001838152602001828103825284818151815260200191508051906020019080838360005b838110156100d15780820151818401526020810190506100b6565b50505050905090810190601f1680156100fe5780820380516001836020036101000a031916815260200191505b5094505050505060405180910390f35b60015481565b6000602052806000526040600020600091509050806000015490806001018054600181600116156101000203166002900480601f0160208091040260200160405190810160405280929190818152602001828054600181600116156101000203166002900480156101c65780601f1061019b576101008083540402835291602001916101c6565b820191906000526020600020905b8154815290600101906020018083116101a957829003601f168201915b505050505090806002015490508356fea265627a7a723158203cc346a77c1f781d6fbd2c710bdf6071d51a0923a40e80c0d9e6521c727179ff64736f6c634300050c0032",
  "source": "pragma solidity 0.5.12;\r\n//IMPORTANT NOTE, COMPATIBILITY : 1) In solidity 0.5 we can now do\r\n//var candidat= app.candidates(1)\r\n//without using  a javascript promise\r\n//see 42:00 in the video (which is a tutorial for 0.4)\r\n//also, 2) we need to specifiy in function calls an argument\r\n//\"storage\" or \"memory\" which means DISK or RAM\r\n//also 3) we need to call constructor() public {} instead of Election() public {}\r\n\r\n\r\n//in the truffle console,\r\n//Election.deployed() is a javascript promise\r\n//handles eventual result of an asynchonous operation\r\n//*promise*.then(...) will execute ... when the promise finishes\r\n//in then() we put a callback function\r\n//then(function(instance){app = instance} ) puts the instance inside the app variable\r\ncontract Election {\r\n\r\n    // Model a candidate\r\n    //we create acustom type\r\n    //we need to instanciate this and assign\r\n    //it to a variable for it to be stored\r\n\r\n    //How big numbers appear in javascript : (prevents overflow)\r\n    //BN { negative: 0, words: [ 2, <1 empty item> ], length: 1, red: null }\r\n    struct Candidate {\r\n      //Problem : unlike whatever goes on outside a struct\r\n      //where we automatically inherit a get function\r\n      //inside a struct there is no such thing,\r\n      //therefore in the truffle console we will\r\n      //not be able to access a candidate's id by writing candiateobject.id\r\n      uint id;\r\n      string name;\r\n      uint voteCount;\r\n    }\r\n\r\n    //store candidates\r\n\r\n    //fetch candidates\r\n    //this is a dictionnary / hash-map\r\n    //problem : we don't know the size of this,\r\n    //because it returns the empty candidate\r\n    //as a default value for a new key\r\n    //because this is public we have access to a nice\r\n    //default public function to read this\r\n    mapping(uint => Candidate) public candidates;\r\n    //store candidates Count, useful for loops\r\n    uint public candidatesCount;\r\n    //add a candidate ?\r\n    //_ because local variable\r\n    //private because we don't want a random person using the contract\r\n    //to be able to do this\r\n    function  addCandidate(string memory _name) private{\r\n      candidatesCount ++;\r\n      candidates[candidatesCount]=Candidate(candidatesCount,_name,0);\r\n    }\r\n    // Constructor\r\n    constructor() public {\r\n        addCandidate('Candidate1');\r\n        addCandidate('Candidate2');\r\n    }\r\n\r\n//NOTE :\r\n//in solidity\r\n\r\n}\r\n",
  "sourcePath": "C:/Users/hadri/Documents/GitHub/COMSW_4995_Blockchain_project2/contracts/Election.sol",
  "compiler": {
    "name": "solc",
    "version": "0.5.12+commit.7709ece9.Emscripten.clang"
  },
  "schemaVersion": "3.0.18",
  "updatedAt": "2019-11-12T04:17:27.633Z",
  "networkType": "ethereum",
  "devdoc": {
    "methods": {}
  },
  "userdoc": {
    "methods": {}
  }
}