{
  "contractName": "Election",
  "abi": [
    {
      "inputs": [],
      "payable": false,
      "stateMutability": "nonpayable",
      "type": "constructor"
    },
    {
      "anonymous": false,
      "inputs": [
        {
          "indexed": true,
          "internalType": "uint256",
          "name": "_candidateid",
          "type": "uint256"
        }
      ],
      "name": "votedEvent",
      "type": "event"
    },
    {
      "constant": true,
      "inputs": [
        {
          "internalType": "uint256",
          "name": "",
          "type": "uint256"
        }
      ],
      "name": "candidates",
      "outputs": [
        {
          "internalType": "uint256",
          "name": "id",
          "type": "uint256"
        },
        {
          "internalType": "string",
          "name": "name",
          "type": "string"
        },
        {
          "internalType": "uint256",
          "name": "voteCount",
          "type": "uint256"
        }
      ],
      "payable": false,
      "stateMutability": "view",
      "type": "function"
    },
    {
      "constant": true,
      "inputs": [],
      "name": "candidatesCount",
      "outputs": [
        {
          "internalType": "uint256",
          "name": "",
          "type": "uint256"
        }
      ],
      "payable": false,
      "stateMutability": "view",
      "type": "function"
    },
    {
      "constant": true,
      "inputs": [
        {
          "internalType": "address",
          "name": "",
          "type": "address"
        }
      ],
      "name": "voters",
      "outputs": [
        {
          "internalType": "bool",
          "name": "",
          "type": "bool"
        }
      ],
      "payable": false,
      "stateMutability": "view",
      "type": "function"
    },
    {
      "constant": false,
      "inputs": [
        {
          "internalType": "uint256",
          "name": "_candidateid",
          "type": "uint256"
        }
      ],
      "name": "vote",
      "outputs": [],
      "payable": false,
      "stateMutability": "nonpayable",
      "type": "function"
    }
  ],
  "bytecode": "0x608060405234801561001057600080fd5b506100556040518060400160405280600a81526020017f43616e646964617465310000000000000000000000000000000000000000000081525061009e60201b60201c565b6100996040518060400160405280600a81526020017f43616e646964617465320000000000000000000000000000000000000000000081525061009e60201b60201c565b6101be565b6002600081548092919060010191905055506040518060600160405280600254815260200182815260200160008152506000806002548152602001908152602001600020600082015181600001556020820151816001019080519060200190610108929190610119565b506040820151816002015590505050565b828054600181600116156101000203166002900490600052602060002090601f016020900481019282601f1061015a57805160ff1916838001178555610188565b82800160010185558215610188579182015b8281111561018757825182559160200191906001019061016c565b5b5090506101959190610199565b5090565b6101bb91905b808211156101b757600081600090555060010161019f565b5090565b90565b6103e9806101cd6000396000f3fe608060405234801561001057600080fd5b506004361061004c5760003560e01c80630121b93f146100515780632d35a8a21461007f5780633477ee2e1461009d578063a3ec138d14610152575b600080fd5b61007d6004803603602081101561006757600080fd5b81019080803590602001909291905050506101ae565b005b6100876102cc565b6040518082815260200191505060405180910390f35b6100c9600480360360208110156100b357600080fd5b81019080803590602001909291905050506102d2565b6040518084815260200180602001838152602001828103825284818151815260200191508051906020019080838360005b838110156101155780820151818401526020810190506100fa565b50505050905090810190601f1680156101425780820380516001836020036101000a031916815260200191505b5094505050505060405180910390f35b6101946004803603602081101561016857600080fd5b81019080803573ffffffffffffffffffffffffffffffffffffffff169060200190929190505050610394565b604051808215151515815260200191505060405180910390f35b600160003373ffffffffffffffffffffffffffffffffffffffff1673ffffffffffffffffffffffffffffffffffffffff16815260200190815260200160002060009054906101000a900460ff161561020557600080fd5b60008111801561021757506002548111155b61022057600080fd5b60018060003373ffffffffffffffffffffffffffffffffffffffff1673ffffffffffffffffffffffffffffffffffffffff16815260200190815260200160002060006101000a81548160ff02191690831515021790555060008082815260200190815260200160002060020160008154809291906001019190505550807ffff3c900d938d21d0990d786e819f29b8d05c1ef587b462b939609625b684b1660405160405180910390a250565b60025481565b6000602052806000526040600020600091509050806000015490806001018054600181600116156101000203166002900480601f0160208091040260200160405190810160405280929190818152602001828054600181600116156101000203166002900480156103845780601f1061035957610100808354040283529160200191610384565b820191906000526020600020905b81548152906001019060200180831161036757829003601f168201915b5050505050908060020154905083565b60016020528060005260406000206000915054906101000a900460ff168156fea265627a7a72315820bb24e406666a83aa9258e6d8a75b3b406c382e8aa9331d5671e1942488d9ec4064736f6c634300050c0032",
  "source": "pragma solidity 0.5.12;\r\n//IMPORTANT NOTE, COMPATIBILITY : 1) In solidity 0.5 we can now do\r\n//var candidat= app.candidates(1)\r\n//without using  a javascript promise\r\n//see 42:00 in the video (which is a tutorial for 0.4)\r\n//also, 2) we need to specifiy in function calls an argument\r\n//\"storage\" or \"memory\" which means DISK or RAM\r\n//also 3) we need to call constructor() public {} instead of Election() public {}\r\n\r\n\r\n//in the truffle console,\r\n//Election.deployed() is a javascript promise\r\n//handles eventual result of an asynchonous operation\r\n//*promise*.then(...) will execute ... when the promise finishes\r\n//in then() we put a callback function\r\n//then(function(instance){app = instance} ) puts the instance inside the app variable\r\ncontract Election {\r\n\r\n    // Model a candidate\r\n    //we create acustom type\r\n    //we need to instanciate this and assign\r\n    //it to a variable for it to be stored\r\n\r\n    //How big numbers appear in javascript : (prevents overflow)\r\n    //BN { negative: 0, words: [ 2, <1 empty item> ], length: 1, red: null }\r\n    struct Candidate {\r\n      //Problem : unlike whatever goes on outside a struct\r\n      //where we automatically inherit a get function\r\n      //inside a struct there is no such thing,\r\n      //therefore in the truffle console we will\r\n      //not be able to access a candidate's id by writing candiateobject.id\r\n      uint id;\r\n      string name;\r\n      uint voteCount;\r\n    }\r\n\r\n    //store candidates\r\n\r\n    //fetch candidates\r\n    //this is a dictionnary / hash-map\r\n    //problem : we don't know the size of this,\r\n    //because it returns the empty candidate\r\n    //as a default value for a new key\r\n    //because this is public we have access to a nice\r\n    //default public function to read this\r\n    mapping(uint => Candidate) public candidates;\r\n    //store candidates Count, useful for loops\r\n\r\n    //store accounts that have voted\r\n    //address is its own type !\r\n    //by default a bool is False\r\n    mapping(address => bool) public voters;\r\n\r\n    uint public candidatesCount;\r\n    //add a candidate ?\r\n    //_ because local variable\r\n    //private because we don't want a random person using the contract\r\n    //to be able to do this\r\n    function  addCandidate(string memory _name) private{\r\n      candidatesCount ++;\r\n      candidates[candidatesCount]=Candidate(candidatesCount,_name,0);\r\n    }\r\n    // Constructor\r\n    constructor() public {\r\n        addCandidate('Candidate1');\r\n        addCandidate('Candidate2');\r\n    }\r\n    event votedEvent (\r\n    //indexes candidateid that was passed\r\n    uint indexed _candidateid\r\n    );\r\n    function vote(uint _candidateid) public {\r\n      //adress has not voted before\r\n      require(!voters[msg.sender]);\r\n      //it is a valid candidate\r\n      require(_candidateid > 0 && _candidateid <= candidatesCount);\r\n\r\n      //record that the voter has voted\r\n      //how ?\r\n      //solidity allows us to use metadata to know WHO has called this function\r\n      //the syntax is msg.sender\r\n      voters[msg.sender] = true;\r\n\r\n      //update votecount for the candidate\r\n      candidates[_candidateid].voteCount ++;\r\n\r\n      //trigger event\r\n      emit votedEvent(_candidateid);\r\n    }\r\n\r\n//NOTE :\r\n//in solidity\r\n\r\n}\r\n",
  "sourcePath": "C:/Users/hadri/Documents/GitHub/COMSW_4995_Blockchain_project2/contracts/Election.sol",
  "compiler": {
    "name": "solc",
    "version": "0.5.12+commit.7709ece9.Emscripten.clang"
  },
  "schemaVersion": "3.0.18",
  "updatedAt": "2019-11-12T21:44:04.228Z",
  "networkType": "ethereum",
  "devdoc": {
    "methods": {}
  },
  "userdoc": {
    "methods": {}
  }
}